:020000040000fa
:080000000002040000000000f2
:020000040000fa
:100400000f8520000e7f22000e01880000000000f2
:100410000c000700c07e2000010020001100070032
:10042000000020000000e000020032000000020096
:100430000000000098030200000000000040da0005
:100440000000fe004440a900000020000000e00081
:100450000300320000002000a00188004440a800f2
:100460000000060091018800800078000000eb0089
:1004700015003700e280400032a0b4009101ba00bc
:10048000e280400032a0b4009102ba00e280400055
:1004900032a0b4000002eb00472bde00f507b200eb
:1004a000602ce10004003a000059eb008301e900f0
:1004b000fdff3e00040037006128e100010032002a
:1004c0000082eb00040007001101ba000200e00006
:1004d000e8ff3a00000006003159ba008301e90044
:1004e0000c0032002159ba008301e90008003200f3
:1004f0000400e00003003a00e280400032a0b400b3
:10050000f5ff370011d9ba008301e900faff3a007c
:100510008100e800e180400032a0b4000000060045
:080520000040da000000fe00bb
:020000040000fa
:020000040002f8
:04aff8009efa0000bd
:020000040000fa
:020000040002f8
:04affc007f3f000093
:020000040000fa
:1000080090020000900200009002000090020000a0
:100018009002000090020000900200009002000090
:100028009002000090020000900200009002000080
:100038009002000090020000900200009002000070
:020000040000fa
:020000040000fa
:100528000200fa00000f78001e0078000080d10059
:100538001e0068000080fa00000006000200fa00b1
:10054800004f78001e80fb00a20020001100090067
:100558000280d8000080fb004400dd008040780065
:100568001e80fb00a2002000811f780011000900f6
:100578000280d8000001780001007800cf007800e0
:1005880000c070000080fb000080fa000000060038
:100598000800fa0010079800210798003207980011
:1005a8003e009000000fe9000c0037001e007800a4
:1005b80000004000800078001e009000808040000d
:1005c8002e00900061006000800878002e009000e6
:1005d8000080d100200798001e0fe9001e00e000ef
:1005e800f2ff3d000080fa00000006000400fa0057
:1005f800000f7800110798001e0090008000e900a5
:100608001e0078000180de00610060000080fa00b2
:10061800000006000e00fa00881f780040079800c6
:10062800510798004e0090000000e0002d003400b3
:100638004e009000300798004e0090002007980068
:100648000000eb00100798001f0037001100200081
:100658003e009000e5ff070000047800210020001c
:100668003e009000e1ff070000046c0051002000ec
:100678003e009000ddff070000046c0061002000d0
:100688003e009000d9ff0700000f6c003e0090006c
:100698000080d10020079800100020009e0f100055
:1006a80004003a002e0090000102200001007000b2
:1006b800200798002e009000300798001e00900038
:1006c8000000e800100798009e0090005e0090006f
:1006d800808f5000ddff35002e00900060079800e5
:1006e800020037000000eb00600798006e009000e1
:1006f8004f0478000080fa00000006000400fa00a9
:10070800100798001e009000000f780011002000cc
:100718001e007800bfff0700000f78001e00780059
:100728000080fa00000006001800fa000040eb0004
:10073800105798000040eb000057980080002000f8
:10074800700798000000eb00600798001000200078
:100758005007980010002000000f78000000eb0000
:100768001016880000f02f00001688000080eb00ab
:100778009016880000003700000000001e5090000e
:100788000080fb00101688007e009000300f980053
:100798003e089000e40f5000db0032003e08900055
:1007a800e40f500011003c003e089000e10f50009b
:1007b800440032003e089000e10f500004003c0065
:1007c8003e0890000000e00015003200eaff370004
:1007d8003e089000e20f5000640032003e0890008e
:1007e800e30f500095003200e3ff37003e08900009
:1007f800e60f50002b0132003e089000e60f500033
:10080800f50035003e089000e70f50006c013200fb
:100818003e089000e80f5000c1013200d6ff3700b3
:100828000040eb00105798001e5090000080fb001d
:10083800101688000099250021002000100f98004c
:10084800210f980007003700000000001e089000e4
:10085800ae08900061005000e0805800100f98002a
:10086800210f98001e089000ae089000e00f50007d
:10087800e08f5800f4ff3a00d5c2bf000042b20032
:100888000004e00004003a007e0090000000e80048
:10089800700798000b003700d4c2bf000044b200b4
:1008a8000004e00003003a00800020007007980070
:1008b800040037001e5090000040e80010579800d0
:1008c800d9ff370000c0eb00105798001e50900069
:1008d8000080fb00101688000099250021002000e8
:1008e800100f9800210f9800070037000000000043
:1008f8001e089000ae08900061005000e08058008b
:10090800100f9800210f98001e089000ae08900064
:10091800e00f5000e08f5800f4ff3a00d5c2bf0046
:100928000042b2000004e00004003a007e0090009b
:100938000000e800700798000c003700d4c2bf0020
:100948000044b2000004e00004003a007e00900079
:100958000000e90070079800040037001e5090005e
:100968000040e90010579800d8ff37000000eb005e
:1009780060079800000037001e5090000080fb00c0
:10098800101688000099250021002000100f9800fb
:10099800210f980007003700000000001e08900093
:1009a800ae08900061005000e0805800100f9800d9
:1009b800210f98001e089000ae089000e00f50002c
:1009c800e08f5800f4ff3a00d5c2bf000042b200e1
:1009d8000004e00004003a007e0090000000e800f7
:1009e8007007980015003700d4c2bf000044b20059
:1009f8000004e00004003a007e0090000000e900d6
:100a0800700798000d0037006e009000c4fe0700c4
:100a1800105798006e0090000000e80060079800ea
:100a2800ee009000f00f2000808f5000d2ff3a00b7
:100a38000000eb0060079800cfff3700f00f2000a0
:100a480060079800000037001e5090000080fb00ef
:100a5800101688000099250021002000100f98002a
:100a6800210f980007003700000000001e089000c2
:100a7800ae08900061005000e0805800100f980008
:100a8800210f98001e089000ae089000e00f50005b
:100a9800e08f5800f4ff3a00d5c2bf000042b20010
:100aa8000004e00004003a007e0090000000e80026
:100ab8007007980014003700d4c2bf000044b20089
:100ac8000004e00004003a007e0090000000e90005
:100ad800700798000c0037006e00900090fe070029
:100ae800105798006e0090000000e9006007980019
:100af8006e0090000000e000d3ff3a00f00f2000e5
:100b080060079800d0ff37000040eb0000579800be
:100b1800000037001e5090000080fb00101688006f
:100b28000099250021002000100f9800210f98003f
:100b380007003700000000001e089000ae08900073
:100b480061005000e0805800100f9800210f9800b5
:100b58001e089000ae089000e00f5000e08f58008b
:100b6800f4ff3a00d5c2bf000042b2000004e00022
:100b780004003a007e0090000000e800700798002a
:100b880015003700d4c2bf000044b2000004e000e2
:100b980004003a007e0090000000e9007007980009
:100ba8000d0037000e50900064fe070010579800a3
:100bb8000e5090000040e800005798008e509000ba
:100bc80030c6b30080cf5000d2ff3a000040eb009f
:100bd80000579800cfff370030c6b3000057980081
:100be800000037001e5090000080fb00101688009f
:100bf8000099250021002000100f9800210f98006f
:100c080007003700000000001e089000ae089000a2
:100c180061005000e0805800100f9800210f9800e4
:100c28001e089000ae089000e00f5000e08f5800ba
:100c3800f4ff3a00d5c2bf000042b2000004e00051
:100c480004003a007e0090000000e8007007980059
:100c580014003700d4c2bf000044b2000004e00012
:100c680004003a007e0090000000e9007007980038
:100c78000c0037000e50900030fe07001057980007
:100c88000e5090000040e900005798000e50900068
:100c98000004e000d3ff3a0030c6b30000579800c4
:100ca800d0ff370070002000600798001000200077
:100cb80050079800000037001e5090000080fb008d
:100cc800101688000099250021002000100f9800b8
:100cd800210f980007003700000000001e08900050
:100ce800ae08900061005000e0805800100f980096
:100cf800210f98001e089000ae089000e00f5000e9
:100d0800e08f5800f4ff3a00d5c2bf000042b2009d
:100d18000004e00004003a007e0090000000e800b3
:100d28007007980026003700d4c2bf000044b20004
:100d38000004e00004003a007e0090000000e90092
:100d4800700798001e0037005e009000e10f500009
:100d580005003a006e009000105798006e00900051
:100d680000004000600798005e0090000000e0006e
:100d780007003a006e009000105798006e0090002f
:100d880022002000110009000200d8006007980026
:100d9800ee009000000e2000808f500002003a0004
:100da8000000eb00500798006e009000e70f50001d
:100db800c1ff3a001000200050079800beff37001e
:100dc80080002000400798000000eb0030079800e2
:100dd8000000eb0020079800100020001007980082
:100de800000037001e5090000080fb00101688009d
:100df8000099250021002000100f9800210f98006d
:100e080007003700000000001e089000ae089000a0
:100e180061005000e0805800100f9800210f9800e2
:100e28001e089000ae089000e00f5000e08f5800b8
:100e3800f4ff3a00d5c2bf000042b2000004e0004f
:100e480004003a007e0090000000e8007007980057
:100e580033003700d4c2bf000044b2000004e000f1
:100e680004003a007e0090000000e9007007980036
:100e78002b0037002e0090000000e00003003a002d
:100e88001000200020079800030037002e00900073
:100e980000004000200798004e0090000000e90084
:100ea800400798003e009000804078002e00900097
:100eb80000c04000105798004e0090000000e0006d
:100ec8000c003a00be0090002e0090000080400008
:100ed800300798000000eb00200798001e009000e3
:100ee80068001000400798001e0090000000e8000d
:100ef80010079800be009000f00f2000808f50006f
:100f0800b8ff3a000000eb0030079800800020008e
:100f1800400798001000200010079800b1ff370024
:100f28000000eb00300798001e5090000080fb0086
:100f3800101688000099250021002000100f980045
:100f4800210f980007003700000000001e089000dd
:100f5800ae08900061005000e0805800100f980023
:100f6800210f98001e089000ae089000e00f500076
:100f7800e08f5800f4ff3a00d5c2bf000042b2002b
:100f88000004e00003003a000000eb00700798003e
:100f9800f9fd3700d4c2bf000044b2000004e000ed
:100fa80004003a007e0090000000e90070079800f5
:100fb800f1fd37001e007800d0fd0700105798009b
:100fc8001e007800cdfd0700000f7800d6ff37001f
:020000040000fa
:040fd8000000000015
:00000001FF
