:020000040000fa
:080000000002040000000000f2
:020000040000fa
:100400000f8020000e7f22000e01880000000000f7
:100410000c000700e03d2000010020001100070053
:10042000000020000000e000020032000000020096
:1004300000000000ca020200000000000040da00d4
:100440000000fe004440a900000020000000e00081
:100450000300320000002000a00188004440a800f2
:100460000000060091018800800078000000eb0089
:1004700015003700e280400032a0b4009101ba00bc
:10048000e280400032a0b4009102ba00e280400055
:1004900032a0b4000002eb00472bde00f507b200eb
:1004a000602ce10004003a000059eb008301e900f0
:1004b000fdff3e00040037006128e100010032002a
:1004c0000082eb00040007001101ba000200e00006
:1004d000e8ff3a00000006003159ba008301e90044
:1004e0000c0032002159ba008301e90008003200f3
:1004f0000400e00003003a00e280400032a0b400b3
:10050000f5ff370011d9ba008301e900faff3a007c
:100510008100e800e180400032a0b4000000060045
:080520000040da000000fe00bb
:020000040000fa
:020000040002f8
:04aff8009efa0000bd
:020000040000fa
:020000040002f8
:04affc007f3f000093
:020000040000fa
:1000080090020000900200009002000090020000a0
:100018009002000090020000900200009002000090
:100028009002000090020000900200009002000080
:100038009002000090020000900200009002000070
:020000040000fa
:020000040000fa
:100528000200fa00000f78001e00780060198800a9
:10053800000e2000001988000000eb0080198800d8
:100548000000eb001019880020f021002019880015
:1005580021e3a8000080fa00000006000200fa006b
:10056800000f78001e007800401988002023a8009a
:1005780020c3bf00614060000004e000fcff3200bf
:10058800001880000080fa00000006000e00fa0043
:1005980000f02f00001688000080eb0090168800fd
:1005a8000040eb00004f9800401f200020079800f3
:1005b8000000eb0010079800000f2000000f7800e3
:1005c8000000eb0010168800f0fc2f00d4ff070095
:1005d8000040eb00004f980040002000dfff0700bc
:1005e800300798003e0090009e0f500050003500e4
:1005f80010c0b300004f98000000370040002000f2
:10060800d6ff070030079800d4c2bf000044b200ec
:100618000004e00003003a000000eb001007980017
:10062800450037003e0090009e0f500003003d003b
:100638000000eb00100798003f0037001e009000f4
:10064800e20f50000200340000c0eb00004f980099
:100658000e4890000080fb00101688002e009000c5
:100668006103b80086007800401320000009b80034
:100678006030b900030278000002420040132000f5
:1006880000b8b900000242008401780052079800bf
:100698006307980007003700000000005e00900024
:1006a800ee00900061005000e0805800500798006c
:1006b800610798005e009000ee009000e00f500087
:1006c800e08f5800f4ff3a001e009000e20f50003f
:1006d800caff3c000000eb001016880080cc220006
:1006e80011002000500798006107980007003700a4
:1006f800000000005e009000ee00900061005000d5
:10070800e080580050079800610798005e0090004c
:10071800ee009000e00f5000e08f5800f4ff3a0020
:100728001e0090000000e80010079800b3ff370093
:100738000040eb00004f98000e4890000080fb003e
:10074800101688002e0090006103b800860078001b
:10075800401320000009b8006030b9000302780097
:10076800000242004013200000b8b9000002420015
:100778008401780052079800630798000700370043
:10078800000000005e009000ee0090006100500044
:10079800e080580050079800610798005e009000bc
:1007a800ee009000e00f5000e08f5800f4ff3a0090
:0407b80089ff37007e
:020000040000fa
:0407bc000000000039
:00000001FF
